{
  "_format": "hh-sol-artifact-1",
  "contractName": "BlokBets",
  "sourceName": "src/backend/contracts/BlokBets.sol",
  "abi": [
    {
      "inputs": [],
      "stateMutability": "nonpayable",
      "type": "constructor"
    },
    {
      "inputs": [
        {
          "internalType": "uint256",
          "name": "",
          "type": "uint256"
        }
      ],
      "name": "Bets",
      "outputs": [
        {
          "internalType": "uint256",
          "name": "bet_id",
          "type": "uint256"
        },
        {
          "internalType": "string",
          "name": "teamA",
          "type": "string"
        },
        {
          "internalType": "string",
          "name": "teamB",
          "type": "string"
        },
        {
          "internalType": "uint256",
          "name": "closingTime",
          "type": "uint256"
        },
        {
          "internalType": "uint256",
          "name": "endingTime",
          "type": "uint256"
        },
        {
          "internalType": "uint256",
          "name": "winnerTeam",
          "type": "uint256"
        },
        {
          "internalType": "uint256",
          "name": "minBet",
          "type": "uint256"
        },
        {
          "internalType": "uint256",
          "name": "betValue",
          "type": "uint256"
        }
      ],
      "stateMutability": "view",
      "type": "function"
    },
    {
      "inputs": [
        {
          "internalType": "string",
          "name": "teamA",
          "type": "string"
        },
        {
          "internalType": "string",
          "name": "teamB",
          "type": "string"
        },
        {
          "internalType": "uint256",
          "name": "endingTime",
          "type": "uint256"
        },
        {
          "internalType": "uint256",
          "name": "closingTime",
          "type": "uint256"
        },
        {
          "internalType": "uint256",
          "name": "minBet",
          "type": "uint256"
        }
      ],
      "name": "StartBet",
      "outputs": [],
      "stateMutability": "nonpayable",
      "type": "function"
    },
    {
      "inputs": [],
      "name": "betId",
      "outputs": [
        {
          "internalType": "uint256",
          "name": "",
          "type": "uint256"
        }
      ],
      "stateMutability": "view",
      "type": "function"
    },
    {
      "inputs": [],
      "name": "owner",
      "outputs": [
        {
          "internalType": "address",
          "name": "",
          "type": "address"
        }
      ],
      "stateMutability": "view",
      "type": "function"
    },
    {
      "inputs": [
        {
          "internalType": "uint256",
          "name": "bet_id",
          "type": "uint256"
        },
        {
          "internalType": "uint256",
          "name": "u_sel",
          "type": "uint256"
        }
      ],
      "name": "placeBet",
      "outputs": [],
      "stateMutability": "payable",
      "type": "function"
    },
    {
      "inputs": [
        {
          "internalType": "uint256",
          "name": "percentage",
          "type": "uint256"
        }
      ],
      "name": "setProfitPercentage",
      "outputs": [],
      "stateMutability": "nonpayable",
      "type": "function"
    },
    {
      "inputs": [
        {
          "internalType": "uint256",
          "name": "bet_id",
          "type": "uint256"
        },
        {
          "internalType": "uint256",
          "name": "value",
          "type": "uint256"
        }
      ],
      "name": "setTeamWinner",
      "outputs": [],
      "stateMutability": "nonpayable",
      "type": "function"
    },
    {
      "inputs": [],
      "name": "showActiveBets",
      "outputs": [
        {
          "components": [
            {
              "internalType": "uint256",
              "name": "bet_id",
              "type": "uint256"
            },
            {
              "internalType": "string",
              "name": "teamA",
              "type": "string"
            },
            {
              "internalType": "string",
              "name": "teamB",
              "type": "string"
            },
            {
              "internalType": "uint256",
              "name": "closingTime",
              "type": "uint256"
            },
            {
              "internalType": "uint256",
              "name": "endingTime",
              "type": "uint256"
            },
            {
              "internalType": "uint256",
              "name": "winnerTeam",
              "type": "uint256"
            },
            {
              "internalType": "uint256",
              "name": "minBet",
              "type": "uint256"
            },
            {
              "internalType": "uint256",
              "name": "betValue",
              "type": "uint256"
            }
          ],
          "internalType": "struct BlokBets.Bet[]",
          "name": "",
          "type": "tuple[]"
        }
      ],
      "stateMutability": "view",
      "type": "function"
    },
    {
      "inputs": [],
      "name": "showAllBets",
      "outputs": [
        {
          "components": [
            {
              "internalType": "uint256",
              "name": "bet_id",
              "type": "uint256"
            },
            {
              "internalType": "string",
              "name": "teamA",
              "type": "string"
            },
            {
              "internalType": "string",
              "name": "teamB",
              "type": "string"
            },
            {
              "internalType": "uint256",
              "name": "closingTime",
              "type": "uint256"
            },
            {
              "internalType": "uint256",
              "name": "endingTime",
              "type": "uint256"
            },
            {
              "internalType": "uint256",
              "name": "winnerTeam",
              "type": "uint256"
            },
            {
              "internalType": "uint256",
              "name": "minBet",
              "type": "uint256"
            },
            {
              "internalType": "uint256",
              "name": "betValue",
              "type": "uint256"
            }
          ],
          "internalType": "struct BlokBets.Bet[]",
          "name": "",
          "type": "tuple[]"
        }
      ],
      "stateMutability": "view",
      "type": "function"
    },
    {
      "inputs": [
        {
          "internalType": "address",
          "name": "player",
          "type": "address"
        }
      ],
      "name": "showBalance",
      "outputs": [
        {
          "internalType": "uint256",
          "name": "",
          "type": "uint256"
        }
      ],
      "stateMutability": "view",
      "type": "function"
    },
    {
      "inputs": [],
      "name": "showUsersBet",
      "outputs": [
        {
          "components": [
            {
              "internalType": "uint256",
              "name": "bet_id",
              "type": "uint256"
            },
            {
              "internalType": "string",
              "name": "teamA",
              "type": "string"
            },
            {
              "internalType": "string",
              "name": "teamB",
              "type": "string"
            },
            {
              "internalType": "uint256",
              "name": "closingTime",
              "type": "uint256"
            },
            {
              "internalType": "uint256",
              "name": "endingTime",
              "type": "uint256"
            },
            {
              "internalType": "uint256",
              "name": "user_selected",
              "type": "uint256"
            },
            {
              "internalType": "bool",
              "name": "status",
              "type": "bool"
            },
            {
              "internalType": "address",
              "name": "player",
              "type": "address"
            },
            {
              "internalType": "uint256",
              "name": "playValue",
              "type": "uint256"
            }
          ],
          "internalType": "struct BlokBets.BetPlay[]",
          "name": "",
          "type": "tuple[]"
        }
      ],
      "stateMutability": "view",
      "type": "function"
    },
    {
      "inputs": [],
      "name": "totalBalance",
      "outputs": [
        {
          "internalType": "uint256",
          "name": "",
          "type": "uint256"
        }
      ],
      "stateMutability": "view",
      "type": "function"
    },
    {
      "inputs": [],
      "name": "widthdrawal",
      "outputs": [],
      "stateMutability": "nonpayable",
      "type": "function"
    },
    {
      "inputs": [
        {
          "internalType": "uint256",
          "name": "value",
          "type": "uint256"
        }
      ],
      "name": "withdrawUser",
      "outputs": [],
      "stateMutability": "nonpayable",
      "type": "function"
    }
  ],
  "bytecode": "0x608060405234801561001057600080fd5b50336000806101000a81548173ffffffffffffffffffffffffffffffffffffffff021916908373ffffffffffffffffffffffffffffffffffffffff160217905550612af0806100606000396000f3fe6080604052600436106100dd5760003560e01c8063532a5fe81161007f5780639c080f5d116100595780639c080f5d14610280578063ad7a672f146102bd578063d36458b1146102e8578063dab70e3c14610313576100dd565b8063532a5fe8146101e65780638a9520dc1461022a5780638da5cb5b14610255576100dd565b806344e44d6a116100bb57806344e44d6a1461015f578063496c84ce1461018a57806349d93096146101a15780634afe62b5146101ca576100dd565b806316bed715146100e257806327bce91b1461010b57806327d9a01f14610136575b600080fd5b3480156100ee57600080fd5b5061010960048036038101906101049190611ff4565b61033c565b005b34801561011757600080fd5b506101206103f2565b60405161012d91906124f1565b60405180910390f35b34801561014257600080fd5b5061015d60048036038101906101589190611fc7565b6103f8565b005b34801561016b57600080fd5b50610174610490565b604051610181919061244f565b60405180910390f35b34801561019657600080fd5b5061019f61070f565b005b3480156101ad57600080fd5b506101c860048036038101906101c39190611f14565b6108f8565b005b6101e460048036038101906101df9190611ff4565b610a71565b005b3480156101f257600080fd5b5061020d60048036038101906102089190611fc7565b611012565b60405161022198979695949392919061250c565b60405180910390f35b34801561023657600080fd5b5061023f61116a565b60405161024c919061244f565b60405180910390f35b34801561026157600080fd5b5061026a611408565b6040516102779190612412565b60405180910390f35b34801561028c57600080fd5b506102a760048036038101906102a29190611ee7565b61142c565b6040516102b491906124f1565b60405180910390f35b3480156102c957600080fd5b506102d2611475565b6040516102df91906124f1565b60405180910390f35b3480156102f457600080fd5b506102fd61147b565b60405161030a919061242d565b60405180910390f35b34801561031f57600080fd5b5061033a60048036038101906103359190611fc7565b6116df565b005b3373ffffffffffffffffffffffffffffffffffffffff1660008054906101000a900473ffffffffffffffffffffffffffffffffffffffff1673ffffffffffffffffffffffffffffffffffffffff16146103ca576040517f08c379a00000000000000000000000000000000000000000000000000000000081526004016103c1906124b1565b60405180910390fd5b8060046000848152602001908152602001600020600501819055506103ee8261181a565b5050565b60015481565b3373ffffffffffffffffffffffffffffffffffffffff1660008054906101000a900473ffffffffffffffffffffffffffffffffffffffff1673ffffffffffffffffffffffffffffffffffffffff1614610486576040517f08c379a000000000000000000000000000000000000000000000000000000000815260040161047d906124b1565b60405180910390fd5b8060038190555050565b60606000805b6001548110156104c15781806104ab9061288f565b92505080806104b99061288f565b915050610496565b5060008167ffffffffffffffff8111156104de576104dd612994565b5b60405190808252806020026020018201604052801561051757816020015b610504611d65565b8152602001906001900390816104fc5790505b5090506000805b6001548110156107055742600460008381526020019081526020016000206003015411156106f25760046000828152602001908152602001600020604051806101000160405290816000820154815260200160018201805461057f9061282c565b80601f01602080910402602001604051908101604052809291908181526020018280546105ab9061282c565b80156105f85780601f106105cd576101008083540402835291602001916105f8565b820191906000526020600020905b8154815290600101906020018083116105db57829003601f168201915b505050505081526020016002820180546106119061282c565b80601f016020809104026020016040519081016040528092919081815260200182805461063d9061282c565b801561068a5780601f1061065f5761010080835404028352916020019161068a565b820191906000526020600020905b81548152906001019060200180831161066d57829003601f168201915b50505050508152602001600382015481526020016004820154815260200160058201548152602001600682015481526020016007820154815250508383815181106106d8576106d7612965565b5b602002602001018190525081806106ee9061288f565b9250505b80806106fd9061288f565b91505061051e565b5081935050505090565b3373ffffffffffffffffffffffffffffffffffffffff1660008054906101000a900473ffffffffffffffffffffffffffffffffffffffff1673ffffffffffffffffffffffffffffffffffffffff161461079d576040517f08c379a0000000000000000000000000000000000000000000000000000000008152600401610794906124b1565b60405180910390fd5b6000600254116107e2576040517f08c379a00000000000000000000000000000000000000000000000000000000081526004016107d990612471565b60405180910390fd5b6000600760008060009054906101000a900473ffffffffffffffffffffffffffffffffffffffff1673ffffffffffffffffffffffffffffffffffffffff1673ffffffffffffffffffffffffffffffffffffffff1681526020019081526020016000205411610885576040517f08c379a000000000000000000000000000000000000000000000000000000000815260040161087c90612471565b60405180910390fd5b600060028190555060008054906101000a900473ffffffffffffffffffffffffffffffffffffffff1673ffffffffffffffffffffffffffffffffffffffff166108fc6002549081150290604051600060405180830381858888f193505050501580156108f5573d6000803e3d6000fd5b50565b3373ffffffffffffffffffffffffffffffffffffffff1660008054906101000a900473ffffffffffffffffffffffffffffffffffffffff1673ffffffffffffffffffffffffffffffffffffffff1614610986576040517f08c379a000000000000000000000000000000000000000000000000000000000815260040161097d906124b1565b60405180910390fd5b60405180610100016040528060015481526020018681526020018581526020018381526020018481526020016000815260200182815260200160008152506004600060015481526020019081526020016000206000820151816000015560208201518160010190805190602001906109ff929190611daa565b506040820151816002019080519060200190610a1c929190611daa565b50606082015181600301556080820151816004015560a0820151816005015560c0820151816006015560e0820151816007015590505060016000815480929190610a659061288f565b91905055505050505050565b42600460008481526020019081526020016000206003015411610ac9576040517f08c379a0000000000000000000000000000000000000000000000000000000008152600401610ac090612491565b60405180910390fd5b34600460008481526020019081526020016000206006015410610b21576040517f08c379a0000000000000000000000000000000000000000000000000000000008152600401610b18906124d1565b60405180910390fd5b6000604051806101200160405280848152602001600460008681526020019081526020016000206001018054610b569061282c565b80601f0160208091040260200160405190810160405280929190818152602001828054610b829061282c565b8015610bcf5780601f10610ba457610100808354040283529160200191610bcf565b820191906000526020600020905b815481529060010190602001808311610bb257829003601f168201915b50505050508152602001600460008681526020019081526020016000206002018054610bfa9061282c565b80601f0160208091040260200160405190810160405280929190818152602001828054610c269061282c565b8015610c735780601f10610c4857610100808354040283529160200191610c73565b820191906000526020600020905b815481529060010190602001808311610c5657829003601f168201915b5050505050815260200160046000868152602001908152602001600020600301548152602001600460008681526020019081526020016000206004015481526020018381526020016000151581526020013373ffffffffffffffffffffffffffffffffffffffff16815260200134815250905060006064600354610cf791906126e3565b34610d029190612714565b905080600760008060009054906101000a900473ffffffffffffffffffffffffffffffffffffffff1673ffffffffffffffffffffffffffffffffffffffff1673ffffffffffffffffffffffffffffffffffffffff168152602001908152602001600020819055508034610d75919061276e565b600460008681526020019081526020016000206007016000828254610d9a919061268d565b925050819055503460026000828254610db3919061268d565b9250508190555060056000858152602001908152602001600020829080600181540180825580915050600190039060005260206000209060080201600090919091909150600082015181600001556020820151816001019080519060200190610e1d929190611daa565b506040820151816002019080519060200190610e3a929190611daa565b50606082015181600301556080820151816004015560a0820151816005015560c08201518160060160006101000a81548160ff02191690831515021790555060e08201518160060160016101000a81548173ffffffffffffffffffffffffffffffffffffffff021916908373ffffffffffffffffffffffffffffffffffffffff16021790555061010082015181600701555050600660003373ffffffffffffffffffffffffffffffffffffffff1673ffffffffffffffffffffffffffffffffffffffff168152602001908152602001600020829080600181540180825580915050600190039060005260206000209060080201600090919091909150600082015181600001556020820151816001019080519060200190610f5c929190611daa565b506040820151816002019080519060200190610f79929190611daa565b50606082015181600301556080820151816004015560a0820151816005015560c08201518160060160006101000a81548160ff02191690831515021790555060e08201518160060160016101000a81548173ffffffffffffffffffffffffffffffffffffffff021916908373ffffffffffffffffffffffffffffffffffffffff1602179055506101008201518160070155505050505050565b600460205280600052604060002060009150905080600001549080600101805461103b9061282c565b80601f01602080910402602001604051908101604052809291908181526020018280546110679061282c565b80156110b45780601f10611089576101008083540402835291602001916110b4565b820191906000526020600020905b81548152906001019060200180831161109757829003601f168201915b5050505050908060020180546110c99061282c565b80601f01602080910402602001604051908101604052809291908181526020018280546110f59061282c565b80156111425780601f1061111757610100808354040283529160200191611142565b820191906000526020600020905b81548152906001019060200180831161112557829003601f168201915b5050505050908060030154908060040154908060050154908060060154908060070154905088565b60606000805b6001548110156111ba5742600460008381526020019081526020016000206003015411156111a75781806111a39061288f565b9250505b80806111b29061288f565b915050611170565b5060008167ffffffffffffffff8111156111d7576111d6612994565b5b60405190808252806020026020018201604052801561121057816020015b6111fd611d65565b8152602001906001900390816111f55790505b5090506000805b6001548110156113fe5742600460008381526020019081526020016000206003015411156113eb576004600082815260200190815260200160002060405180610100016040529081600082015481526020016001820180546112789061282c565b80601f01602080910402602001604051908101604052809291908181526020018280546112a49061282c565b80156112f15780601f106112c6576101008083540402835291602001916112f1565b820191906000526020600020905b8154815290600101906020018083116112d457829003601f168201915b5050505050815260200160028201805461130a9061282c565b80601f01602080910402602001604051908101604052809291908181526020018280546113369061282c565b80156113835780601f1061135857610100808354040283529160200191611383565b820191906000526020600020905b81548152906001019060200180831161136657829003601f168201915b50505050508152602001600382015481526020016004820154815260200160058201548152602001600682015481526020016007820154815250508383815181106113d1576113d0612965565b5b602002602001018190525081806113e79061288f565b9250505b80806113f69061288f565b915050611217565b5081935050505090565b60008054906101000a900473ffffffffffffffffffffffffffffffffffffffff1681565b6000600760008373ffffffffffffffffffffffffffffffffffffffff1673ffffffffffffffffffffffffffffffffffffffff168152602001908152602001600020549050919050565b60025481565b6060600660003373ffffffffffffffffffffffffffffffffffffffff1673ffffffffffffffffffffffffffffffffffffffff168152602001908152602001600020805480602002602001604051908101604052809291908181526020016000905b828210156116d65783829060005260206000209060080201604051806101200160405290816000820154815260200160018201805461151a9061282c565b80601f01602080910402602001604051908101604052809291908181526020018280546115469061282c565b80156115935780601f1061156857610100808354040283529160200191611593565b820191906000526020600020905b81548152906001019060200180831161157657829003601f168201915b505050505081526020016002820180546115ac9061282c565b80601f01602080910402602001604051908101604052809291908181526020018280546115d89061282c565b80156116255780601f106115fa57610100808354040283529160200191611625565b820191906000526020600020905b81548152906001019060200180831161160857829003601f168201915b505050505081526020016003820154815260200160048201548152602001600582015481526020016006820160009054906101000a900460ff161515151581526020016006820160019054906101000a900473ffffffffffffffffffffffffffffffffffffffff1673ffffffffffffffffffffffffffffffffffffffff1673ffffffffffffffffffffffffffffffffffffffff168152602001600782015481525050815260200190600101906114dc565b50505050905090565b80600760003373ffffffffffffffffffffffffffffffffffffffff1673ffffffffffffffffffffffffffffffffffffffff168152602001908152602001600020541015611761576040517f08c379a000000000000000000000000000000000000000000000000000000000815260040161175890612471565b60405180910390fd5b8060026000828254611773919061276e565b9250508190555080600760003373ffffffffffffffffffffffffffffffffffffffff1673ffffffffffffffffffffffffffffffffffffffff16815260200190815260200160002060008282546117c9919061276e565b925050819055503373ffffffffffffffffffffffffffffffffffffffff166108fc829081150290604051600060405180830381858888f19350505050158015611816573d6000803e3d6000fd5b5050565b3373ffffffffffffffffffffffffffffffffffffffff1660008054906101000a900473ffffffffffffffffffffffffffffffffffffffff1673ffffffffffffffffffffffffffffffffffffffff16146118a8576040517f08c379a000000000000000000000000000000000000000000000000000000000815260040161189f906124b1565b60405180910390fd5b6000600460008381526020019081526020016000206007015490506000806000905060005b600560008681526020019081526020016000208054905081101561196157600460008681526020019081526020016000206005015460056000878152602001908152602001600020828154811061192757611926612965565b5b906000526020600020906008020160050154141561194e57818061194a9061288f565b9250505b80806119599061288f565b9150506118cd565b506000600182611971919061268d565b67ffffffffffffffff81111561198a57611989612994565b5b6040519080825280602002602001820160405280156119b85781602001602082028036833780820191505090505b5090506000805b6005600088815260200190815260200160002080549050811015611ab7576004600088815260200190815260200160002060050154600560008981526020019081526020016000208281548110611a1957611a18612965565b5b9060005260206000209060080201600501541415611aa45780838381518110611a4557611a44612965565b5b6020026020010181815250508180611a5c9061288f565b925050600560008881526020019081526020016000208181548110611a8457611a83612965565b5b90600052602060002090600802016007015485611aa1919061268d565b94505b8080611aaf9061288f565b9150506119bf565b50600080600090505b82811015611d34576000611b24600560008b8152602001908152602001600020868481518110611af357611af2612965565b5b602002602001015181548110611b0c57611b0b612965565b5b90600052602060002090600802016007015488611d3e565b9050606481611b3391906126e3565b600460008b815260200190815260200160002060070154611b549190612714565b92506001600560008b8152602001908152602001600020868481518110611b7e57611b7d612965565b5b602002602001015181548110611b9757611b96612965565b5b906000526020600020906008020160060160006101000a81548160ff0219169083151502179055506000600560008b8152602001908152602001600020868481518110611be757611be6612965565b5b602002602001015181548110611c0057611bff612965565b5b906000526020600020906008020160060160019054906101000a900473ffffffffffffffffffffffffffffffffffffffff1690506001600660008373ffffffffffffffffffffffffffffffffffffffff1673ffffffffffffffffffffffffffffffffffffffff168152602001908152602001600020878581518110611c8857611c87612965565b5b602002602001015181548110611ca157611ca0612965565b5b906000526020600020906008020160060160006101000a81548160ff02191690831515021790555083600760008373ffffffffffffffffffffffffffffffffffffffff1673ffffffffffffffffffffffffffffffffffffffff1681526020019081526020016000206000828254611d18919061268d565b9250508190555050508080611d2c9061288f565b915050611ac0565b5050505050505050565b60008082606485611d4f9190612714565b611d5991906126e3565b90508091505092915050565b60405180610100016040528060008152602001606081526020016060815260200160008152602001600081526020016000815260200160008152602001600081525090565b828054611db69061282c565b90600052602060002090601f016020900481019282611dd85760008555611e1f565b82601f10611df157805160ff1916838001178555611e1f565b82800160010185558215611e1f579182015b82811115611e1e578251825591602001919060010190611e03565b5b509050611e2c9190611e30565b5090565b5b80821115611e49576000816000905550600101611e31565b5090565b6000611e60611e5b846125bd565b612598565b905082815260208101848484011115611e7c57611e7b6129c8565b5b611e878482856127ea565b509392505050565b600081359050611e9e81612a8c565b92915050565b600082601f830112611eb957611eb86129c3565b5b8135611ec9848260208601611e4d565b91505092915050565b600081359050611ee181612aa3565b92915050565b600060208284031215611efd57611efc6129d2565b5b6000611f0b84828501611e8f565b91505092915050565b600080600080600060a08688031215611f3057611f2f6129d2565b5b600086013567ffffffffffffffff811115611f4e57611f4d6129cd565b5b611f5a88828901611ea4565b955050602086013567ffffffffffffffff811115611f7b57611f7a6129cd565b5b611f8788828901611ea4565b9450506040611f9888828901611ed2565b9350506060611fa988828901611ed2565b9250506080611fba88828901611ed2565b9150509295509295909350565b600060208284031215611fdd57611fdc6129d2565b5b6000611feb84828501611ed2565b91505092915050565b6000806040838503121561200b5761200a6129d2565b5b600061201985828601611ed2565b925050602061202a85828601611ed2565b9150509250929050565b60006120408383612271565b905092915050565b6000612054838361233d565b905092915050565b612065816127a2565b82525050565b612074816127a2565b82525050565b60006120858261260e565b61208f8185612649565b9350836020820285016120a1856125ee565b8060005b858110156120dd57848403895281516120be8582612034565b94506120c98361262f565b925060208a019950506001810190506120a5565b50829750879550505050505092915050565b60006120fa82612619565b612104818561265a565b935083602082028501612116856125fe565b8060005b8581101561215257848403895281516121338582612048565b945061213e8361263c565b925060208a0199505060018101905061211a565b50829750879550505050505092915050565b61216d816127b4565b82525050565b600061217e82612624565b612188818561266b565b93506121988185602086016127f9565b6121a1816129d7565b840191505092915050565b60006121b782612624565b6121c1818561267c565b93506121d18185602086016127f9565b6121da816129d7565b840191505092915050565b60006121f260138361267c565b91506121fd826129e8565b602082019050919050565b6000612215600e8361267c565b915061222082612a11565b602082019050919050565b6000612238600a8361267c565b915061224382612a3a565b602082019050919050565b600061225b60118361267c565b915061226682612a63565b602082019050919050565b60006101208301600083015161228a60008601826123f4565b50602083015184820360208601526122a28282612173565b915050604083015184820360408601526122bc8282612173565b91505060608301516122d160608601826123f4565b5060808301516122e460808601826123f4565b5060a08301516122f760a08601826123f4565b5060c083015161230a60c0860182612164565b5060e083015161231d60e086018261205c565b506101008301516123326101008601826123f4565b508091505092915050565b60006101008301600083015161235660008601826123f4565b506020830151848203602086015261236e8282612173565b915050604083015184820360408601526123888282612173565b915050606083015161239d60608601826123f4565b5060808301516123b060808601826123f4565b5060a08301516123c360a08601826123f4565b5060c08301516123d660c08601826123f4565b5060e08301516123e960e08601826123f4565b508091505092915050565b6123fd816127e0565b82525050565b61240c816127e0565b82525050565b6000602082019050612427600083018461206b565b92915050565b60006020820190508181036000830152612447818461207a565b905092915050565b6000602082019050818103600083015261246981846120ef565b905092915050565b6000602082019050818103600083015261248a816121e5565b9050919050565b600060208201905081810360008301526124aa81612208565b9050919050565b600060208201905081810360008301526124ca8161222b565b9050919050565b600060208201905081810360008301526124ea8161224e565b9050919050565b60006020820190506125066000830184612403565b92915050565b600061010082019050612522600083018b612403565b8181036020830152612534818a6121ac565b9050818103604083015261254881896121ac565b90506125576060830188612403565b6125646080830187612403565b61257160a0830186612403565b61257e60c0830185612403565b61258b60e0830184612403565b9998505050505050505050565b60006125a26125b3565b90506125ae828261285e565b919050565b6000604051905090565b600067ffffffffffffffff8211156125d8576125d7612994565b5b6125e1826129d7565b9050602081019050919050565b6000819050602082019050919050565b6000819050602082019050919050565b600081519050919050565b600081519050919050565b600081519050919050565b6000602082019050919050565b6000602082019050919050565b600082825260208201905092915050565b600082825260208201905092915050565b600082825260208201905092915050565b600082825260208201905092915050565b6000612698826127e0565b91506126a3836127e0565b9250827fffffffffffffffffffffffffffffffffffffffffffffffffffffffffffffffff038211156126d8576126d76128d8565b5b828201905092915050565b60006126ee826127e0565b91506126f9836127e0565b92508261270957612708612907565b5b828204905092915050565b600061271f826127e0565b915061272a836127e0565b9250817fffffffffffffffffffffffffffffffffffffffffffffffffffffffffffffffff0483118215151615612763576127626128d8565b5b828202905092915050565b6000612779826127e0565b9150612784836127e0565b925082821015612797576127966128d8565b5b828203905092915050565b60006127ad826127c0565b9050919050565b60008115159050919050565b600073ffffffffffffffffffffffffffffffffffffffff82169050919050565b6000819050919050565b82818337600083830152505050565b60005b838110156128175780820151818401526020810190506127fc565b83811115612826576000848401525b50505050565b6000600282049050600182168061284457607f821691505b6020821081141561285857612857612936565b5b50919050565b612867826129d7565b810181811067ffffffffffffffff8211171561288657612885612994565b5b80604052505050565b600061289a826127e0565b91507fffffffffffffffffffffffffffffffffffffffffffffffffffffffffffffffff8214156128cd576128cc6128d8565b5b600182019050919050565b7f4e487b7100000000000000000000000000000000000000000000000000000000600052601160045260246000fd5b7f4e487b7100000000000000000000000000000000000000000000000000000000600052601260045260246000fd5b7f4e487b7100000000000000000000000000000000000000000000000000000000600052602260045260246000fd5b7f4e487b7100000000000000000000000000000000000000000000000000000000600052603260045260246000fd5b7f4e487b7100000000000000000000000000000000000000000000000000000000600052604160045260246000fd5b600080fd5b600080fd5b600080fd5b600080fd5b6000601f19601f8301169050919050565b7f696e737566666963656e742062616c616e636500000000000000000000000000600082015250565b7f6265742074696d6520656e646564000000000000000000000000000000000000600082015250565b7f6f6e6c79206f776e657200000000000000000000000000000000000000000000600082015250565b7f6e6f74206c657373207468616e206d696e000000000000000000000000000000600082015250565b612a95816127a2565b8114612aa057600080fd5b50565b612aac816127e0565b8114612ab757600080fd5b5056fea2646970667358221220a310d2e6ef12176bb9241b4c330c931521b318fda61d7793142b167d310b972864736f6c63430008070033",
  "linkReferences": {},
  "deployedLinkReferences": {}
}